{
	"contracts/test4.sol": {
		"GlobalVariables": {
			"abi": [
				{
					"inputs": [],
					"stateMutability": "nonpayable",
					"type": "constructor"
				},
				{
					"inputs": [],
					"name": "changeOwner",
					"outputs": [],
					"stateMutability": "nonpayable",
					"type": "function"
				},
				{
					"inputs": [],
					"name": "getBalance",
					"outputs": [
						{
							"internalType": "uint256",
							"name": "",
							"type": "uint256"
						}
					],
					"stateMutability": "view",
					"type": "function"
				},
				{
					"inputs": [],
					"name": "howMuchGas",
					"outputs": [
						{
							"internalType": "uint256",
							"name": "",
							"type": "uint256"
						}
					],
					"stateMutability": "view",
					"type": "function"
				},
				{
					"inputs": [],
					"name": "owner",
					"outputs": [
						{
							"internalType": "address",
							"name": "",
							"type": "address"
						}
					],
					"stateMutability": "view",
					"type": "function"
				},
				{
					"inputs": [],
					"name": "sendEther",
					"outputs": [],
					"stateMutability": "payable",
					"type": "function"
				},
				{
					"inputs": [],
					"name": "sentValue",
					"outputs": [
						{
							"internalType": "uint256",
							"name": "",
							"type": "uint256"
						}
					],
					"stateMutability": "view",
					"type": "function"
				}
			],
			"devdoc": {
				"kind": "dev",
				"methods": {},
				"version": 1
			},
			"evm": {
				"assembly": "    /* \"contracts/test4.sol\":33:649  contract GlobalVariables{... */\n  mstore(0x40, 0x80)\n    /* \"contracts/test4.sol\":117:165  constructor(){... */\n  callvalue\n  dup1\n  iszero\n  tag_1\n  jumpi\n  0x00\n  dup1\n  revert\ntag_1:\n  pop\n    /* \"contracts/test4.sol\":148:158  msg.sender */\n  caller\n    /* \"contracts/test4.sol\":140:145  owner */\n  0x00\n  dup1\n    /* \"contracts/test4.sol\":140:158  owner = msg.sender */\n  0x0100\n  exp\n  dup2\n  sload\n  dup2\n  0xffffffffffffffffffffffffffffffffffffffff\n  mul\n  not\n  and\n  swap1\n  dup4\n  0xffffffffffffffffffffffffffffffffffffffff\n  and\n  mul\n  or\n  swap1\n  sstore\n  pop\n    /* \"contracts/test4.sol\":33:649  contract GlobalVariables{... */\n  dataSize(sub_0)\n  dup1\n  dataOffset(sub_0)\n  0x00\n  codecopy\n  0x00\n  return\nstop\n\nsub_0: assembly {\n        /* \"contracts/test4.sol\":33:649  contract GlobalVariables{... */\n      mstore(0x40, 0x80)\n      jumpi(tag_1, lt(calldatasize, 0x04))\n      shr(0xe0, calldataload(0x00))\n      dup1\n      0x0e29df22\n      eq\n      tag_2\n      jumpi\n      dup1\n      0x12065fe0\n      eq\n      tag_3\n      jumpi\n      dup1\n      0x62a09477\n      eq\n      tag_4\n      jumpi\n      dup1\n      0x6dcb8d84\n      eq\n      tag_5\n      jumpi\n      dup1\n      0x8da5cb5b\n      eq\n      tag_6\n      jumpi\n      dup1\n      0x997b3d83\n      eq\n      tag_7\n      jumpi\n    tag_1:\n      0x00\n      dup1\n      revert\n        /* \"contracts/test4.sol\":241:314  function sendEther() public payable{... */\n    tag_2:\n      tag_8\n      tag_9\n      jump\t// in\n    tag_8:\n      stop\n        /* \"contracts/test4.sol\":320:412  function getBalance() public view returns(uint){... */\n    tag_3:\n      callvalue\n      dup1\n      iszero\n      tag_10\n      jumpi\n      0x00\n      dup1\n      revert\n    tag_10:\n      pop\n      tag_11\n      tag_12\n      jump\t// in\n    tag_11:\n      mload(0x40)\n      tag_13\n      swap2\n      swap1\n      tag_14\n      jump\t// in\n    tag_13:\n      mload(0x40)\n      dup1\n      swap2\n      sub\n      swap1\n      return\n        /* \"contracts/test4.sol\":171:235  function changeOwner() public{... */\n    tag_4:\n      callvalue\n      dup1\n      iszero\n      tag_15\n      jumpi\n      0x00\n      dup1\n      revert\n    tag_15:\n      pop\n      tag_16\n      tag_17\n      jump\t// in\n    tag_16:\n      stop\n        /* \"contracts/test4.sol\":89:110  uint public sentValue */\n    tag_5:\n      callvalue\n      dup1\n      iszero\n      tag_18\n      jumpi\n      0x00\n      dup1\n      revert\n    tag_18:\n      pop\n      tag_19\n      tag_20\n      jump\t// in\n    tag_19:\n      mload(0x40)\n      tag_21\n      swap2\n      swap1\n      tag_14\n      jump\t// in\n    tag_21:\n      mload(0x40)\n      dup1\n      swap2\n      sub\n      swap1\n      return\n        /* \"contracts/test4.sol\":63:83  address public owner */\n    tag_6:\n      callvalue\n      dup1\n      iszero\n      tag_22\n      jumpi\n      0x00\n      dup1\n      revert\n    tag_22:\n      pop\n      tag_23\n      tag_24\n      jump\t// in\n    tag_23:\n      mload(0x40)\n      tag_25\n      swap2\n      swap1\n      tag_26\n      jump\t// in\n    tag_25:\n      mload(0x40)\n      dup1\n      swap2\n      sub\n      swap1\n      return\n        /* \"contracts/test4.sol\":418:647  function howMuchGas() public view returns(uint){... */\n    tag_7:\n      callvalue\n      dup1\n      iszero\n      tag_27\n      jumpi\n      0x00\n      dup1\n      revert\n    tag_27:\n      pop\n      tag_28\n      tag_29\n      jump\t// in\n    tag_28:\n      mload(0x40)\n      tag_30\n      swap2\n      swap1\n      tag_14\n      jump\t// in\n    tag_30:\n      mload(0x40)\n      dup1\n      swap2\n      sub\n      swap1\n      return\n        /* \"contracts/test4.sol\":241:314  function sendEther() public payable{... */\n    tag_9:\n        /* \"contracts/test4.sol\":298:307  msg.value */\n      callvalue\n        /* \"contracts/test4.sol\":286:295  sentValue */\n      0x01\n        /* \"contracts/test4.sol\":286:307  sentValue = msg.value */\n      dup2\n      swap1\n      sstore\n      pop\n        /* \"contracts/test4.sol\":241:314  function sendEther() public payable{... */\n      jump\t// out\n        /* \"contracts/test4.sol\":320:412  function getBalance() public view returns(uint){... */\n    tag_12:\n        /* \"contracts/test4.sol\":362:366  uint */\n      0x00\n        /* \"contracts/test4.sol\":384:405  address(this).balance */\n      selfbalance\n        /* \"contracts/test4.sol\":377:405  return address(this).balance */\n      swap1\n      pop\n        /* \"contracts/test4.sol\":320:412  function getBalance() public view returns(uint){... */\n      swap1\n      jump\t// out\n        /* \"contracts/test4.sol\":171:235  function changeOwner() public{... */\n    tag_17:\n        /* \"contracts/test4.sol\":218:228  msg.sender */\n      caller\n        /* \"contracts/test4.sol\":210:215  owner */\n      0x00\n      dup1\n        /* \"contracts/test4.sol\":210:228  owner = msg.sender */\n      0x0100\n      exp\n      dup2\n      sload\n      dup2\n      0xffffffffffffffffffffffffffffffffffffffff\n      mul\n      not\n      and\n      swap1\n      dup4\n      0xffffffffffffffffffffffffffffffffffffffff\n      and\n      mul\n      or\n      swap1\n      sstore\n      pop\n        /* \"contracts/test4.sol\":171:235  function changeOwner() public{... */\n      jump\t// out\n        /* \"contracts/test4.sol\":89:110  uint public sentValue */\n    tag_20:\n      sload(0x01)\n      dup2\n      jump\t// out\n        /* \"contracts/test4.sol\":63:83  address public owner */\n    tag_24:\n      0x00\n      dup1\n      sload\n      swap1\n      0x0100\n      exp\n      swap1\n      div\n      0xffffffffffffffffffffffffffffffffffffffff\n      and\n      dup2\n      jump\t// out\n        /* \"contracts/test4.sol\":418:647  function howMuchGas() public view returns(uint){... */\n    tag_29:\n        /* \"contracts/test4.sol\":460:464  uint */\n      0x00\n        /* \"contracts/test4.sol\":475:485  uint start */\n      dup1\n        /* \"contracts/test4.sol\":488:497  gasleft() */\n      gas\n        /* \"contracts/test4.sol\":475:497  uint start = gasleft() */\n      swap1\n      pop\n        /* \"contracts/test4.sol\":507:513  uint j */\n      0x00\n        /* \"contracts/test4.sol\":516:517  1 */\n      0x01\n        /* \"contracts/test4.sol\":507:517  uint j = 1 */\n      swap1\n      pop\n        /* \"contracts/test4.sol\":531:537  uint i */\n      0x00\n        /* \"contracts/test4.sol\":538:539  1 */\n      0x01\n        /* \"contracts/test4.sol\":531:539  uint i=1 */\n      swap1\n      pop\n        /* \"contracts/test4.sol\":527:582  for(uint i=1; i<20; i++){... */\n    tag_35:\n        /* \"contracts/test4.sol\":543:545  20 */\n      0x14\n        /* \"contracts/test4.sol\":541:542  i */\n      dup2\n        /* \"contracts/test4.sol\":541:545  i<20 */\n      lt\n        /* \"contracts/test4.sol\":527:582  for(uint i=1; i<20; i++){... */\n      iszero\n      tag_36\n      jumpi\n        /* \"contracts/test4.sol\":570:571  i */\n      dup1\n        /* \"contracts/test4.sol\":565:571  j *= i */\n      dup3\n      tag_38\n      swap2\n      swap1\n      tag_39\n      jump\t// in\n    tag_38:\n      swap2\n      pop\n        /* \"contracts/test4.sol\":547:550  i++ */\n      dup1\n      dup1\n      tag_40\n      swap1\n      tag_41\n      jump\t// in\n    tag_40:\n      swap2\n      pop\n      pop\n        /* \"contracts/test4.sol\":527:582  for(uint i=1; i<20; i++){... */\n      jump(tag_35)\n    tag_36:\n      pop\n        /* \"contracts/test4.sol\":592:600  uint end */\n      0x00\n        /* \"contracts/test4.sol\":603:612  gasleft() */\n      gas\n        /* \"contracts/test4.sol\":592:612  uint end = gasleft() */\n      swap1\n      pop\n        /* \"contracts/test4.sol\":637:640  end */\n      dup1\n        /* \"contracts/test4.sol\":629:634  start */\n      dup4\n        /* \"contracts/test4.sol\":629:640  start - end */\n      tag_42\n      swap2\n      swap1\n      tag_43\n      jump\t// in\n    tag_42:\n        /* \"contracts/test4.sol\":622:640  return start - end */\n      swap4\n      pop\n      pop\n      pop\n      pop\n        /* \"contracts/test4.sol\":418:647  function howMuchGas() public view returns(uint){... */\n      swap1\n      jump\t// out\n        /* \"#utility.yul\":7:125   */\n    tag_45:\n        /* \"#utility.yul\":94:118   */\n      tag_47\n        /* \"#utility.yul\":112:117   */\n      dup2\n        /* \"#utility.yul\":94:118   */\n      tag_48\n      jump\t// in\n    tag_47:\n        /* \"#utility.yul\":89:92   */\n      dup3\n        /* \"#utility.yul\":82:119   */\n      mstore\n        /* \"#utility.yul\":7:125   */\n      pop\n      pop\n      jump\t// out\n        /* \"#utility.yul\":131:249   */\n    tag_49:\n        /* \"#utility.yul\":218:242   */\n      tag_51\n        /* \"#utility.yul\":236:241   */\n      dup2\n        /* \"#utility.yul\":218:242   */\n      tag_52\n      jump\t// in\n    tag_51:\n        /* \"#utility.yul\":213:216   */\n      dup3\n        /* \"#utility.yul\":206:243   */\n      mstore\n        /* \"#utility.yul\":131:249   */\n      pop\n      pop\n      jump\t// out\n        /* \"#utility.yul\":255:477   */\n    tag_26:\n        /* \"#utility.yul\":348:352   */\n      0x00\n        /* \"#utility.yul\":386:388   */\n      0x20\n        /* \"#utility.yul\":375:384   */\n      dup3\n        /* \"#utility.yul\":371:389   */\n      add\n        /* \"#utility.yul\":363:389   */\n      swap1\n      pop\n        /* \"#utility.yul\":399:470   */\n      tag_54\n        /* \"#utility.yul\":467:468   */\n      0x00\n        /* \"#utility.yul\":456:465   */\n      dup4\n        /* \"#utility.yul\":452:469   */\n      add\n        /* \"#utility.yul\":443:449   */\n      dup5\n        /* \"#utility.yul\":399:470   */\n      tag_45\n      jump\t// in\n    tag_54:\n        /* \"#utility.yul\":255:477   */\n      swap3\n      swap2\n      pop\n      pop\n      jump\t// out\n        /* \"#utility.yul\":483:705   */\n    tag_14:\n        /* \"#utility.yul\":576:580   */\n      0x00\n        /* \"#utility.yul\":614:616   */\n      0x20\n        /* \"#utility.yul\":603:612   */\n      dup3\n        /* \"#utility.yul\":599:617   */\n      add\n        /* \"#utility.yul\":591:617   */\n      swap1\n      pop\n        /* \"#utility.yul\":627:698   */\n      tag_56\n        /* \"#utility.yul\":695:696   */\n      0x00\n        /* \"#utility.yul\":684:693   */\n      dup4\n        /* \"#utility.yul\":680:697   */\n      add\n        /* \"#utility.yul\":671:677   */\n      dup5\n        /* \"#utility.yul\":627:698   */\n      tag_49\n      jump\t// in\n    tag_56:\n        /* \"#utility.yul\":483:705   */\n      swap3\n      swap2\n      pop\n      pop\n      jump\t// out\n        /* \"#utility.yul\":711:1059   */\n    tag_39:\n        /* \"#utility.yul\":751:758   */\n      0x00\n        /* \"#utility.yul\":774:794   */\n      tag_58\n        /* \"#utility.yul\":792:793   */\n      dup3\n        /* \"#utility.yul\":774:794   */\n      tag_52\n      jump\t// in\n    tag_58:\n        /* \"#utility.yul\":769:794   */\n      swap2\n      pop\n        /* \"#utility.yul\":808:828   */\n      tag_59\n        /* \"#utility.yul\":826:827   */\n      dup4\n        /* \"#utility.yul\":808:828   */\n      tag_52\n      jump\t// in\n    tag_59:\n        /* \"#utility.yul\":803:828   */\n      swap3\n      pop\n        /* \"#utility.yul\":996:997   */\n      dup2\n        /* \"#utility.yul\":928:994   */\n      0xffffffffffffffffffffffffffffffffffffffffffffffffffffffffffffffff\n        /* \"#utility.yul\":924:998   */\n      div\n        /* \"#utility.yul\":921:922   */\n      dup4\n        /* \"#utility.yul\":918:999   */\n      gt\n        /* \"#utility.yul\":913:914   */\n      dup3\n        /* \"#utility.yul\":906:915   */\n      iszero\n        /* \"#utility.yul\":899:916   */\n      iszero\n        /* \"#utility.yul\":895:1000   */\n      and\n        /* \"#utility.yul\":892:1023   */\n      iszero\n      tag_60\n      jumpi\n        /* \"#utility.yul\":1003:1021   */\n      tag_61\n      tag_62\n      jump\t// in\n    tag_61:\n        /* \"#utility.yul\":892:1023   */\n    tag_60:\n        /* \"#utility.yul\":1051:1052   */\n      dup3\n        /* \"#utility.yul\":1048:1049   */\n      dup3\n        /* \"#utility.yul\":1044:1053   */\n      mul\n        /* \"#utility.yul\":1033:1053   */\n      swap1\n      pop\n        /* \"#utility.yul\":711:1059   */\n      swap3\n      swap2\n      pop\n      pop\n      jump\t// out\n        /* \"#utility.yul\":1065:1256   */\n    tag_43:\n        /* \"#utility.yul\":1105:1109   */\n      0x00\n        /* \"#utility.yul\":1125:1145   */\n      tag_64\n        /* \"#utility.yul\":1143:1144   */\n      dup3\n        /* \"#utility.yul\":1125:1145   */\n      tag_52\n      jump\t// in\n    tag_64:\n        /* \"#utility.yul\":1120:1145   */\n      swap2\n      pop\n        /* \"#utility.yul\":1159:1179   */\n      tag_65\n        /* \"#utility.yul\":1177:1178   */\n      dup4\n        /* \"#utility.yul\":1159:1179   */\n      tag_52\n      jump\t// in\n    tag_65:\n        /* \"#utility.yul\":1154:1179   */\n      swap3\n      pop\n        /* \"#utility.yul\":1198:1199   */\n      dup3\n        /* \"#utility.yul\":1195:1196   */\n      dup3\n        /* \"#utility.yul\":1192:1200   */\n      lt\n        /* \"#utility.yul\":1189:1223   */\n      iszero\n      tag_66\n      jumpi\n        /* \"#utility.yul\":1203:1221   */\n      tag_67\n      tag_62\n      jump\t// in\n    tag_67:\n        /* \"#utility.yul\":1189:1223   */\n    tag_66:\n        /* \"#utility.yul\":1248:1249   */\n      dup3\n        /* \"#utility.yul\":1245:1246   */\n      dup3\n        /* \"#utility.yul\":1241:1250   */\n      sub\n        /* \"#utility.yul\":1233:1250   */\n      swap1\n      pop\n        /* \"#utility.yul\":1065:1256   */\n      swap3\n      swap2\n      pop\n      pop\n      jump\t// out\n        /* \"#utility.yul\":1262:1358   */\n    tag_48:\n        /* \"#utility.yul\":1299:1306   */\n      0x00\n        /* \"#utility.yul\":1328:1352   */\n      tag_69\n        /* \"#utility.yul\":1346:1351   */\n      dup3\n        /* \"#utility.yul\":1328:1352   */\n      tag_70\n      jump\t// in\n    tag_69:\n        /* \"#utility.yul\":1317:1352   */\n      swap1\n      pop\n        /* \"#utility.yul\":1262:1358   */\n      swap2\n      swap1\n      pop\n      jump\t// out\n        /* \"#utility.yul\":1364:1490   */\n    tag_70:\n        /* \"#utility.yul\":1401:1408   */\n      0x00\n        /* \"#utility.yul\":1441:1483   */\n      0xffffffffffffffffffffffffffffffffffffffff\n        /* \"#utility.yul\":1434:1439   */\n      dup3\n        /* \"#utility.yul\":1430:1484   */\n      and\n        /* \"#utility.yul\":1419:1484   */\n      swap1\n      pop\n        /* \"#utility.yul\":1364:1490   */\n      swap2\n      swap1\n      pop\n      jump\t// out\n        /* \"#utility.yul\":1496:1573   */\n    tag_52:\n        /* \"#utility.yul\":1533:1540   */\n      0x00\n        /* \"#utility.yul\":1562:1567   */\n      dup2\n        /* \"#utility.yul\":1551:1567   */\n      swap1\n      pop\n        /* \"#utility.yul\":1496:1573   */\n      swap2\n      swap1\n      pop\n      jump\t// out\n        /* \"#utility.yul\":1579:1812   */\n    tag_41:\n        /* \"#utility.yul\":1618:1621   */\n      0x00\n        /* \"#utility.yul\":1641:1665   */\n      tag_74\n        /* \"#utility.yul\":1659:1664   */\n      dup3\n        /* \"#utility.yul\":1641:1665   */\n      tag_52\n      jump\t// in\n    tag_74:\n        /* \"#utility.yul\":1632:1665   */\n      swap2\n      pop\n        /* \"#utility.yul\":1687:1753   */\n      0xffffffffffffffffffffffffffffffffffffffffffffffffffffffffffffffff\n        /* \"#utility.yul\":1680:1685   */\n      dup3\n        /* \"#utility.yul\":1677:1754   */\n      eq\n        /* \"#utility.yul\":1674:1777   */\n      iszero\n      tag_75\n      jumpi\n        /* \"#utility.yul\":1757:1775   */\n      tag_76\n      tag_62\n      jump\t// in\n    tag_76:\n        /* \"#utility.yul\":1674:1777   */\n    tag_75:\n        /* \"#utility.yul\":1804:1805   */\n      0x01\n        /* \"#utility.yul\":1797:1802   */\n      dup3\n        /* \"#utility.yul\":1793:1806   */\n      add\n        /* \"#utility.yul\":1786:1806   */\n      swap1\n      pop\n        /* \"#utility.yul\":1579:1812   */\n      swap2\n      swap1\n      pop\n      jump\t// out\n        /* \"#utility.yul\":1818:1998   */\n    tag_62:\n        /* \"#utility.yul\":1866:1943   */\n      0x4e487b7100000000000000000000000000000000000000000000000000000000\n        /* \"#utility.yul\":1863:1864   */\n      0x00\n        /* \"#utility.yul\":1856:1944   */\n      mstore\n        /* \"#utility.yul\":1963:1967   */\n      0x11\n        /* \"#utility.yul\":1960:1961   */\n      0x04\n        /* \"#utility.yul\":1953:1968   */\n      mstore\n        /* \"#utility.yul\":1987:1991   */\n      0x24\n        /* \"#utility.yul\":1984:1985   */\n      0x00\n        /* \"#utility.yul\":1977:1992   */\n      revert\n\n    auxdata: 0xa2646970667358221220995d6b5e55d1b5372dcb099e8ab879b3c1e893d17c42df8d1a1966081d2cf0ce64736f6c63430008070033\n}\n",
				"bytecode": {
					"linkReferences": {},
					"object": "608060405234801561001057600080fd5b50336000806101000a81548173ffffffffffffffffffffffffffffffffffffffff021916908373ffffffffffffffffffffffffffffffffffffffff1602179055506103c7806100606000396000f3fe6080604052600436106100555760003560e01c80630e29df221461005a57806312065fe01461006457806362a094771461008f5780636dcb8d84146100a65780638da5cb5b146100d1578063997b3d83146100fc575b600080fd5b610062610127565b005b34801561007057600080fd5b50610079610130565b6040516100869190610234565b60405180910390f35b34801561009b57600080fd5b506100a4610138565b005b3480156100b257600080fd5b506100bb61017a565b6040516100c89190610234565b60405180910390f35b3480156100dd57600080fd5b506100e6610180565b6040516100f39190610219565b60405180910390f35b34801561010857600080fd5b506101116101a4565b60405161011e9190610234565b60405180910390f35b34600181905550565b600047905090565b336000806101000a81548173ffffffffffffffffffffffffffffffffffffffff021916908373ffffffffffffffffffffffffffffffffffffffff160217905550565b60015481565b60008054906101000a900473ffffffffffffffffffffffffffffffffffffffff1681565b6000805a90506000600190506000600190505b60148110156101e15780826101cc919061024f565b915080806101d990610319565b9150506101b7565b5060005a905080836101f391906102a9565b935050505090565b610204816102dd565b82525050565b6102138161030f565b82525050565b600060208201905061022e60008301846101fb565b92915050565b6000602082019050610249600083018461020a565b92915050565b600061025a8261030f565b91506102658361030f565b9250817fffffffffffffffffffffffffffffffffffffffffffffffffffffffffffffffff048311821515161561029e5761029d610362565b5b828202905092915050565b60006102b48261030f565b91506102bf8361030f565b9250828210156102d2576102d1610362565b5b828203905092915050565b60006102e8826102ef565b9050919050565b600073ffffffffffffffffffffffffffffffffffffffff82169050919050565b6000819050919050565b60006103248261030f565b91507fffffffffffffffffffffffffffffffffffffffffffffffffffffffffffffffff82141561035757610356610362565b5b600182019050919050565b7f4e487b7100000000000000000000000000000000000000000000000000000000600052601160045260246000fdfea2646970667358221220995d6b5e55d1b5372dcb099e8ab879b3c1e893d17c42df8d1a1966081d2cf0ce64736f6c63430008070033",
					"opcodes": "PUSH1 0x80 PUSH1 0x40 MSTORE CALLVALUE DUP1 ISZERO PUSH2 0x10 JUMPI PUSH1 0x0 DUP1 REVERT JUMPDEST POP CALLER PUSH1 0x0 DUP1 PUSH2 0x100 EXP DUP2 SLOAD DUP2 PUSH20 0xFFFFFFFFFFFFFFFFFFFFFFFFFFFFFFFFFFFFFFFF MUL NOT AND SWAP1 DUP4 PUSH20 0xFFFFFFFFFFFFFFFFFFFFFFFFFFFFFFFFFFFFFFFF AND MUL OR SWAP1 SSTORE POP PUSH2 0x3C7 DUP1 PUSH2 0x60 PUSH1 0x0 CODECOPY PUSH1 0x0 RETURN INVALID PUSH1 0x80 PUSH1 0x40 MSTORE PUSH1 0x4 CALLDATASIZE LT PUSH2 0x55 JUMPI PUSH1 0x0 CALLDATALOAD PUSH1 0xE0 SHR DUP1 PUSH4 0xE29DF22 EQ PUSH2 0x5A JUMPI DUP1 PUSH4 0x12065FE0 EQ PUSH2 0x64 JUMPI DUP1 PUSH4 0x62A09477 EQ PUSH2 0x8F JUMPI DUP1 PUSH4 0x6DCB8D84 EQ PUSH2 0xA6 JUMPI DUP1 PUSH4 0x8DA5CB5B EQ PUSH2 0xD1 JUMPI DUP1 PUSH4 0x997B3D83 EQ PUSH2 0xFC JUMPI JUMPDEST PUSH1 0x0 DUP1 REVERT JUMPDEST PUSH2 0x62 PUSH2 0x127 JUMP JUMPDEST STOP JUMPDEST CALLVALUE DUP1 ISZERO PUSH2 0x70 JUMPI PUSH1 0x0 DUP1 REVERT JUMPDEST POP PUSH2 0x79 PUSH2 0x130 JUMP JUMPDEST PUSH1 0x40 MLOAD PUSH2 0x86 SWAP2 SWAP1 PUSH2 0x234 JUMP JUMPDEST PUSH1 0x40 MLOAD DUP1 SWAP2 SUB SWAP1 RETURN JUMPDEST CALLVALUE DUP1 ISZERO PUSH2 0x9B JUMPI PUSH1 0x0 DUP1 REVERT JUMPDEST POP PUSH2 0xA4 PUSH2 0x138 JUMP JUMPDEST STOP JUMPDEST CALLVALUE DUP1 ISZERO PUSH2 0xB2 JUMPI PUSH1 0x0 DUP1 REVERT JUMPDEST POP PUSH2 0xBB PUSH2 0x17A JUMP JUMPDEST PUSH1 0x40 MLOAD PUSH2 0xC8 SWAP2 SWAP1 PUSH2 0x234 JUMP JUMPDEST PUSH1 0x40 MLOAD DUP1 SWAP2 SUB SWAP1 RETURN JUMPDEST CALLVALUE DUP1 ISZERO PUSH2 0xDD JUMPI PUSH1 0x0 DUP1 REVERT JUMPDEST POP PUSH2 0xE6 PUSH2 0x180 JUMP JUMPDEST PUSH1 0x40 MLOAD PUSH2 0xF3 SWAP2 SWAP1 PUSH2 0x219 JUMP JUMPDEST PUSH1 0x40 MLOAD DUP1 SWAP2 SUB SWAP1 RETURN JUMPDEST CALLVALUE DUP1 ISZERO PUSH2 0x108 JUMPI PUSH1 0x0 DUP1 REVERT JUMPDEST POP PUSH2 0x111 PUSH2 0x1A4 JUMP JUMPDEST PUSH1 0x40 MLOAD PUSH2 0x11E SWAP2 SWAP1 PUSH2 0x234 JUMP JUMPDEST PUSH1 0x40 MLOAD DUP1 SWAP2 SUB SWAP1 RETURN JUMPDEST CALLVALUE PUSH1 0x1 DUP2 SWAP1 SSTORE POP JUMP JUMPDEST PUSH1 0x0 SELFBALANCE SWAP1 POP SWAP1 JUMP JUMPDEST CALLER PUSH1 0x0 DUP1 PUSH2 0x100 EXP DUP2 SLOAD DUP2 PUSH20 0xFFFFFFFFFFFFFFFFFFFFFFFFFFFFFFFFFFFFFFFF MUL NOT AND SWAP1 DUP4 PUSH20 0xFFFFFFFFFFFFFFFFFFFFFFFFFFFFFFFFFFFFFFFF AND MUL OR SWAP1 SSTORE POP JUMP JUMPDEST PUSH1 0x1 SLOAD DUP2 JUMP JUMPDEST PUSH1 0x0 DUP1 SLOAD SWAP1 PUSH2 0x100 EXP SWAP1 DIV PUSH20 0xFFFFFFFFFFFFFFFFFFFFFFFFFFFFFFFFFFFFFFFF AND DUP2 JUMP JUMPDEST PUSH1 0x0 DUP1 GAS SWAP1 POP PUSH1 0x0 PUSH1 0x1 SWAP1 POP PUSH1 0x0 PUSH1 0x1 SWAP1 POP JUMPDEST PUSH1 0x14 DUP2 LT ISZERO PUSH2 0x1E1 JUMPI DUP1 DUP3 PUSH2 0x1CC SWAP2 SWAP1 PUSH2 0x24F JUMP JUMPDEST SWAP2 POP DUP1 DUP1 PUSH2 0x1D9 SWAP1 PUSH2 0x319 JUMP JUMPDEST SWAP2 POP POP PUSH2 0x1B7 JUMP JUMPDEST POP PUSH1 0x0 GAS SWAP1 POP DUP1 DUP4 PUSH2 0x1F3 SWAP2 SWAP1 PUSH2 0x2A9 JUMP JUMPDEST SWAP4 POP POP POP POP SWAP1 JUMP JUMPDEST PUSH2 0x204 DUP2 PUSH2 0x2DD JUMP JUMPDEST DUP3 MSTORE POP POP JUMP JUMPDEST PUSH2 0x213 DUP2 PUSH2 0x30F JUMP JUMPDEST DUP3 MSTORE POP POP JUMP JUMPDEST PUSH1 0x0 PUSH1 0x20 DUP3 ADD SWAP1 POP PUSH2 0x22E PUSH1 0x0 DUP4 ADD DUP5 PUSH2 0x1FB JUMP JUMPDEST SWAP3 SWAP2 POP POP JUMP JUMPDEST PUSH1 0x0 PUSH1 0x20 DUP3 ADD SWAP1 POP PUSH2 0x249 PUSH1 0x0 DUP4 ADD DUP5 PUSH2 0x20A JUMP JUMPDEST SWAP3 SWAP2 POP POP JUMP JUMPDEST PUSH1 0x0 PUSH2 0x25A DUP3 PUSH2 0x30F JUMP JUMPDEST SWAP2 POP PUSH2 0x265 DUP4 PUSH2 0x30F JUMP JUMPDEST SWAP3 POP DUP2 PUSH32 0xFFFFFFFFFFFFFFFFFFFFFFFFFFFFFFFFFFFFFFFFFFFFFFFFFFFFFFFFFFFFFFFF DIV DUP4 GT DUP3 ISZERO ISZERO AND ISZERO PUSH2 0x29E JUMPI PUSH2 0x29D PUSH2 0x362 JUMP JUMPDEST JUMPDEST DUP3 DUP3 MUL SWAP1 POP SWAP3 SWAP2 POP POP JUMP JUMPDEST PUSH1 0x0 PUSH2 0x2B4 DUP3 PUSH2 0x30F JUMP JUMPDEST SWAP2 POP PUSH2 0x2BF DUP4 PUSH2 0x30F JUMP JUMPDEST SWAP3 POP DUP3 DUP3 LT ISZERO PUSH2 0x2D2 JUMPI PUSH2 0x2D1 PUSH2 0x362 JUMP JUMPDEST JUMPDEST DUP3 DUP3 SUB SWAP1 POP SWAP3 SWAP2 POP POP JUMP JUMPDEST PUSH1 0x0 PUSH2 0x2E8 DUP3 PUSH2 0x2EF JUMP JUMPDEST SWAP1 POP SWAP2 SWAP1 POP JUMP JUMPDEST PUSH1 0x0 PUSH20 0xFFFFFFFFFFFFFFFFFFFFFFFFFFFFFFFFFFFFFFFF DUP3 AND SWAP1 POP SWAP2 SWAP1 POP JUMP JUMPDEST PUSH1 0x0 DUP2 SWAP1 POP SWAP2 SWAP1 POP JUMP JUMPDEST PUSH1 0x0 PUSH2 0x324 DUP3 PUSH2 0x30F JUMP JUMPDEST SWAP2 POP PUSH32 0xFFFFFFFFFFFFFFFFFFFFFFFFFFFFFFFFFFFFFFFFFFFFFFFFFFFFFFFFFFFFFFFF DUP3 EQ ISZERO PUSH2 0x357 JUMPI PUSH2 0x356 PUSH2 0x362 JUMP JUMPDEST JUMPDEST PUSH1 0x1 DUP3 ADD SWAP1 POP SWAP2 SWAP1 POP JUMP JUMPDEST PUSH32 0x4E487B7100000000000000000000000000000000000000000000000000000000 PUSH1 0x0 MSTORE PUSH1 0x11 PUSH1 0x4 MSTORE PUSH1 0x24 PUSH1 0x0 REVERT INVALID LOG2 PUSH5 0x6970667358 0x22 SLT KECCAK256 SWAP10 0x5D PUSH12 0x5E55D1B5372DCB099E8AB879 0xB3 0xC1 0xE8 SWAP4 0xD1 PUSH29 0x42DF8D1A1966081D2CF0CE64736F6C6343000807003300000000000000 "
				},
				"gasEstimates": {
					"creation": {
						"codeDepositCost": "193400",
						"executionCost": "24504",
						"totalCost": "217904"
					},
					"external": {
						"changeOwner()": "24432",
						"getBalance()": "339",
						"howMuchGas()": "infinite",
						"owner()": "2577",
						"sendEther()": "22211",
						"sentValue()": "2473"
					}
				},
				"methodIdentifiers": {
					"changeOwner()": "62a09477",
					"getBalance()": "12065fe0",
					"howMuchGas()": "997b3d83",
					"owner()": "8da5cb5b",
					"sendEther()": "0e29df22",
					"sentValue()": "6dcb8d84"
				}
			},
			"storageLayout": {
				"storage": [
					{
						"astId": 2,
						"contract": "contracts/test4.sol:GlobalVariables",
						"label": "owner",
						"offset": 0,
						"slot": "0",
						"type": "t_address"
					},
					{
						"astId": 4,
						"contract": "contracts/test4.sol:GlobalVariables",
						"label": "sentValue",
						"offset": 0,
						"slot": "1",
						"type": "t_uint256"
					}
				],
				"types": {
					"t_address": {
						"encoding": "inplace",
						"label": "address",
						"numberOfBytes": "20"
					},
					"t_uint256": {
						"encoding": "inplace",
						"label": "uint256",
						"numberOfBytes": "32"
					}
				}
			},
			"userdoc": {
				"kind": "user",
				"methods": {},
				"version": 1
			}
		}
	}
}